:10012600E7EBEDD7DBDDB7BBBD777B7D3132333413
:0C01360035363738392A30237FBFDFEF21
:1000D900758922E4F58DF58B758810D2ABD2A8D23B
:1000E90088759840D2CC75C81075CDFF75CBFF7552
:0C00F900CCEE75CAEED2CAD28ED2AF2275
:10010500E4FEEE900126936F6009EEC3940C500354
:100115000E80EF7F0CEE640C6006EE90013293FFCB
:0101250022B7
:03001B000200A739
:0D00A700C0E0C083C082C0D075D000C0078B
:1000B400AF08EF90013E93F5A030B20EE508C3946B
:0A00C40003500405088003750800CE
:0B00CE00D007D0D0D082D083D0E03229
:03000600120009DC
:0C000900E4FFE4FE0EBE8CFC0FBF8CF682
:0100150022C8
:0C014200E4FFE4FE0EBE64FC0FBF64F698
:01014E00228E
:0300030002001EDA
:10001E00C0E0C083C082C0D075D000C004C005C08F
:03002E0006C00702
:10003100E4FDC28EAFA0120105AC07EC640C605365
:1000410020A405750901801620A505750902800EF9
:1000510020A605750903800620A703750904C2803F
:10006100120142D280120006120009EDC395095017
:100071000DC280120009D2801200090D80ED12001C
:1000810006C280120009D280C2998C993099FDC2B2
:0500910088D288D28E28
:10009600D007D006D005D004D0D0D082D083D0E00F
:0100A6003227
:07016300E4F50875A07F22FE
:08015B001201631200D980FEBD
:0300000002014FAB
:0C014F00787FE4F6D8FD75810902015BA1
:00000001FF
