:0400EE007FBFDFEF02
:1000AF00758922E4F58DF58B758810D2ABD2A8D265
:1000BF0088759840D2CC75C81075CDFF75CBFF757C
:0C00CF00CCEE75CAEED2CAD28ED2AF229F
:03001B0002007D63
:0D007D00C0E0C083C082C0D075D000C007B5
:10008A00AF08EF9000EE93F5A030B20EE508C394E6
:0A009A0003500405088003750800F8
:0B00A400D007D0D0D082D083D0E03253
:0C000600E4FFE4FE0EBE8CFC0FBF8CF685
:0100120022CB
:0300030002001EDA
:0D001E00C0E0C0D075D000C005C006C0070E
:10002B00E4FDC28E85A00A20A40575090180162067
:10003B00A505750902800E20A6057509038006200B
:10004B00A703750904EDC39509500DC28012000674
:10005B00D2801200060D80ED120006120006C2803F
:07006B00120006D280D28EC4
:0B007200D007D006D005D0D0D0E0327F
:0700E700E4F50875A07F227B
:080013001200E71200AF80FEAD
:030000000200DB20
:0C00DB00787FE4F6D8FD75810A0200135E
:00000001FF
